{
  "contractName": "SmartContract",
  "abi": [
    {
      "constant": true,
      "inputs": [
        {
          "name": "",
          "type": "uint256"
        }
      ],
      "name": "contracts",
      "outputs": [
        {
          "name": "id",
          "type": "uint256"
        },
        {
          "name": "seller",
          "type": "string"
        },
        {
          "name": "buyer",
          "type": "string"
        },
        {
          "name": "type_immoblier",
          "type": "string"
        },
        {
          "name": "price",
          "type": "string"
        },
        {
          "name": "date",
          "type": "uint256"
        }
      ],
      "payable": false,
      "stateMutability": "view",
      "type": "function"
    },
    {
      "constant": true,
      "inputs": [],
      "name": "contractCount",
      "outputs": [
        {
          "name": "",
          "type": "uint256"
        }
      ],
      "payable": false,
      "stateMutability": "view",
      "type": "function"
    },
    {
      "inputs": [],
      "payable": false,
      "stateMutability": "nonpayable",
      "type": "constructor"
    },
    {
      "anonymous": false,
      "inputs": [
        {
          "indexed": false,
          "name": "id",
          "type": "uint256"
        },
        {
          "indexed": false,
          "name": "seller",
          "type": "string"
        },
        {
          "indexed": false,
          "name": "buyer",
          "type": "string"
        },
        {
          "indexed": false,
          "name": "type_immoblier",
          "type": "string"
        },
        {
          "indexed": false,
          "name": "price",
          "type": "string"
        },
        {
          "indexed": false,
          "name": "date",
          "type": "uint256"
        }
      ],
      "name": "ContractCreated",
      "type": "event"
    },
    {
      "constant": false,
      "inputs": [
        {
          "name": "_seller",
          "type": "string"
        },
        {
          "name": "_buyer",
          "type": "string"
        },
        {
          "name": "_type_immoblier",
          "type": "string"
        },
        {
          "name": "_price",
          "type": "string"
        }
      ],
      "name": "createContract",
      "outputs": [],
      "payable": false,
      "stateMutability": "nonpayable",
      "type": "function"
    },
    {
      "constant": true,
      "inputs": [],
      "name": "getAll",
      "outputs": [
        {
          "components": [
            {
              "name": "id",
              "type": "uint256"
            },
            {
              "name": "seller",
              "type": "string"
            },
            {
              "name": "buyer",
              "type": "string"
            },
            {
              "name": "type_immoblier",
              "type": "string"
            },
            {
              "name": "price",
              "type": "string"
            },
            {
              "name": "date",
              "type": "uint256"
            }
          ],
          "name": "",
          "type": "tuple[]"
        }
      ],
      "payable": false,
      "stateMutability": "view",
      "type": "function"
    }
  ],
  "bytecode": "0x6080604052600080553480156200001557600080fd5b50620001076040805190810160405280601781526020017f4d7920666972737420736d61727420636f6e74726163740000000000000000008152506040805190810160405280600381526020017f6e6f6d00000000000000000000000000000000000000000000000000000000008152506040805190810160405280600481526020017f70707070000000000000000000000000000000000000000000000000000000008152506040805190810160405280600581526020017f70707070700000000000000000000000000000000000000000000000000000008152506200010d640100000000026401000000009004565b620003d7565b6000805460019081018083556040805160c08101825282815260208082018a81528284018a905260608301899052608083018890524260a08401529386528481529190942084518155915180519293620001709390850192919091019062000223565b50604082015180516200018e91600284019160209091019062000223565b5060608201518051620001ac91600384019160209091019062000223565b5060808201518051620001ca91600484019160209091019062000223565b5060a082015181600501559050507f82444517104c6f135c6ec7d1691190818ede1aedf4315c76e001c5fc79ceb42b6000548585858542604051620002159695949392919062000314565b60405180910390a150505050565b828054600181600116156101000203166002900490600052602060002090601f016020900481019282601f106200026657805160ff191683800117855562000296565b8280016001018555821562000296579182015b828111156200029657825182559160200191906001019062000279565b50620002a4929150620002a8565b5090565b620002c591905b80821115620002a45760008155600101620002af565b90565b6000620002d58262000396565b808452620002eb8160208601602086016200039a565b620002f681620003cd565b9093016020019392505050565b6200030e81620002c5565b82525050565b60c0810162000324828962000303565b8181036020830152620003388188620002c8565b905081810360408301526200034e8187620002c8565b90508181036060830152620003648186620002c8565b905081810360808301526200037a8185620002c8565b90506200038b60a083018462000303565b979650505050505050565b5190565b60005b83811015620003b75781810151838201526020016200039d565b83811115620003c7576000848401525b50505050565b601f01601f191690565b610c3580620003e76000396000f3fe6080604052600436106100615763ffffffff7c0100000000000000000000000000000000000000000000000000000000600035041663474da79a811461006657806353ed5143146100a15780638736381a146100c3578063cf8d40d4146100e5575b600080fd5b34801561007257600080fd5b50610086610081366004610959565b610107565b60405161009896959493929190610ae6565b60405180910390f35b3480156100ad57600080fd5b506100b6610365565b6040516100989190610ac1565b3480156100cf57600080fd5b506100d8610651565b6040516100989190610ad2565b3480156100f157600080fd5b50610105610100366004610899565b610657565b005b600160208181526000928352604092839020805481840180548651600296821615610100026000190190911695909504601f810185900485028601850190965285855290949193929091908301828280156101a35780601f10610178576101008083540402835291602001916101a3565b820191906000526020600020905b81548152906001019060200180831161018657829003601f168201915b50505060028085018054604080516020601f60001961010060018716150201909416959095049283018590048502810185019091528181529596959450909250908301828280156102355780601f1061020a57610100808354040283529160200191610235565b820191906000526020600020905b81548152906001019060200180831161021857829003601f168201915b5050505060038301805460408051602060026001851615610100026000190190941693909304601f81018490048402820184019092528181529495949350908301828280156102c55780601f1061029a576101008083540402835291602001916102c5565b820191906000526020600020905b8154815290600101906020018083116102a857829003601f168201915b5050505060048301805460408051602060026001851615610100026000190190941693909304601f81018490048402820184019092528181529495949350908301828280156103555780601f1061032a57610100808354040283529160200191610355565b820191906000526020600020905b81548152906001019060200180831161033857829003601f168201915b5050505050908060050154905086565b6060806000546040519080825280602002602001820160405280156103a457816020015b610391610763565b8152602001906001900390816103895790505b50905060005b60005481101561064a57600081815260016020818152604092839020835160c0810185528154815281840180548651600296821615610100026000190190911695909504601f8101859004850286018501909652858552909491938584019390929083018282801561045d5780601f106104325761010080835404028352916020019161045d565b820191906000526020600020905b81548152906001019060200180831161044057829003601f168201915b5050509183525050600282810180546040805160206001841615610100026000190190931694909404601f810183900483028501830190915280845293810193908301828280156104ef5780601f106104c4576101008083540402835291602001916104ef565b820191906000526020600020905b8154815290600101906020018083116104d257829003601f168201915b505050918352505060038201805460408051602060026001851615610100026000190190941693909304601f81018490048402820184019092528181529382019392918301828280156105835780601f1061055857610100808354040283529160200191610583565b820191906000526020600020905b81548152906001019060200180831161056657829003601f168201915b505050918352505060048201805460408051602060026001851615610100026000190190941693909304601f81018490048402820184019092528181529382019392918301828280156106175780601f106105ec57610100808354040283529160200191610617565b820191906000526020600020905b8154815290600101906020018083116105fa57829003601f168201915b50505050508152602001600582015481525050828281518110151561063857fe5b602090810290910101526001016103aa565b5090505b90565b60005481565b6000805460019081018083556040805160c08101825282815260208082018a81528284018a905260608301899052608083018890524260a084015293865284815291909420845181559151805192936106b89390850192919091019061079a565b50604082015180516106d491600284019160209091019061079a565b50606082015180516106f091600384019160209091019061079a565b506080820151805161070c91600484019160209091019061079a565b5060a082015181600501559050507f82444517104c6f135c6ec7d1691190818ede1aedf4315c76e001c5fc79ceb42b600054858585854260405161075596959493929190610ae6565b60405180910390a150505050565b60c0604051908101604052806000815260200160608152602001606081526020016060815260200160608152602001600081525090565b828054600181600116156101000203166002900490600052602060002090601f016020900481019282601f106107db57805160ff1916838001178555610808565b82800160010185558215610808579182015b828111156108085782518255916020019190600101906107ed565b50610814929150610818565b5090565b61064e91905b80821115610814576000815560010161081e565b6000601f8201831361084357600080fd5b813561085661085182610b83565b610b5c565b9150808252602083016020830185838301111561087257600080fd5b61087d838284610bb5565b50505092915050565b6000610892823561064e565b9392505050565b600080600080608085870312156108af57600080fd5b843567ffffffffffffffff8111156108c657600080fd5b6108d287828801610832565b945050602085013567ffffffffffffffff8111156108ef57600080fd5b6108fb87828801610832565b935050604085013567ffffffffffffffff81111561091857600080fd5b61092487828801610832565b925050606085013567ffffffffffffffff81111561094157600080fd5b61094d87828801610832565b91505092959194509250565b60006020828403121561096b57600080fd5b60006109778484610886565b949350505050565b600061098a82610bb1565b808452602084019350836020820285016109a385610bab565b60005b848110156109da5783830388526109be838351610a1b565b92506109c982610bab565b6020989098019791506001016109a6565b50909695505050505050565b60006109f182610bb1565b808452610a05816020860160208601610bc1565b610a0e81610bf1565b9093016020019392505050565b805160009060c0840190610a2f8582610ab2565b5060208301518482036020860152610a4782826109e6565b91505060408301518482036040860152610a6182826109e6565b91505060608301518482036060860152610a7b82826109e6565b91505060808301518482036080860152610a9582826109e6565b91505060a0830151610aaa60a0860182610ab2565b509392505050565b610abb8161064e565b82525050565b60208082528101610892818461097f565b60208101610ae08284610ab2565b92915050565b60c08101610af48289610ab2565b8181036020830152610b0681886109e6565b90508181036040830152610b1a81876109e6565b90508181036060830152610b2e81866109e6565b90508181036080830152610b4281856109e6565b9050610b5160a0830184610ab2565b979650505050505050565b60405181810167ffffffffffffffff81118282101715610b7b57600080fd5b604052919050565b600067ffffffffffffffff821115610b9a57600080fd5b506020601f91909101601f19160190565b60200190565b5190565b82818337506000910152565b60005b83811015610bdc578181015183820152602001610bc4565b83811115610beb576000848401525b50505050565b601f01601f19169056fea265627a7a72305820cfcfa14c5d04fbba82aa8fd03bd75794ca4358396525c3a85dc997ee1e8e42ec6c6578706572696d656e74616cf50037",
  "source": "// SPDX-License-Identifier: MIT\npragma solidity ^0.5.0;\n\npragma experimental ABIEncoderV2;\ncontract SmartContract {\n    // State variable = represent the state of the smart contract in the blockchain\n    uint public contractCount = 0;\n\n    struct Contract{\n        uint id;\n        string seller;\n        string buyer;\n        string type_immoblier;\n        string price;\n        uint date;\n       \n    }\n\n    mapping(uint => Contract) public contracts;\n\n    event ContractCreated(\n        uint id,\n        string seller,\n        string buyer,\n        string type_immoblier,\n         string price,\n         uint date\n       \n    );\n   \n    constructor() public {\n        createContract(\"My first smart contract\", \"nom\",\"pppp\", \"ppppp\");\n    }\n\n    function createContract(string memory _seller,string memory _buyer, string memory _type_immoblier, string memory  _price) public{\n        contractCount ++;\n        contracts[contractCount] = Contract(contractCount, _seller, _buyer, _type_immoblier, _price, now);\n        emit ContractCreated(contractCount, _seller, _buyer, _type_immoblier, _price, now);\n    }\n\n    function getAll() public view returns (Contract[] memory){\n    Contract[] memory all = new Contract[](contractCount);\n    for (uint j = 0; j < contractCount; j++) {\n       \n           all[j] = contracts[j];\n        \n    }\n    return all;\n}\n\n}\n",
  "sourcePath": "C:/Users/hp/Desktop/meta/smartC-test/contracts/SmartContract.sol",
  "compiler": {
    "name": "solc",
    "version": "0.5.0+commit.1d4f565a.Emscripten.clang"
  },
  "schemaVersion": "3.0.1",
  "updatedAt": "2022-02-08T09:25:10.992Z",
  "devdoc": {
    "methods": {}
  },
  "userdoc": {
    "methods": {}
  }
}